:100000000C9434000C943E010C9446000C94460071
:100010000C9446000C9446000C9446000C94460048
:100020000C9446000C9446000C9446000C94460038
:100030000C9446000C9446000C9481010C944600EC
:100040000C9446000C9446000C9446000C94460018
:100050000C9446000C9446000C9446000C94460008
:100060000C9446000C94460011241FBECFEFD8E03C
:10007000DEBFCDBF21E0A0E0B1E001C01D92AD31F7
:10008000B207E1F70E9444030C9495030C9400001E
:10009000ECE7F0E0808184648083EAE7F0E080812F
:1000A0008F68808383B7826083BF0895EAE7F0E0BA
:1000B00080818064808383B7816083BF8091780072
:1000C00090917900089584B1866084B982EA809322
:1000D00080008AE1809381000895509387004093C7
:1000E0008600813029F470938B0060938A00089514
:1000F0007093890060938800089587E68093C40018
:100100001092C500E2ECF0E080818660808388E197
:100110008093C10008958091C00087FFFCCF80913B
:10012000C60008959091C00095FFFCCF8093C60053
:1001300008958AB18F708AB984B1867C84B90C9491
:100140007D0089B14D995CC090E028EE33E0929F2C
:10015000A001939F500D11244E9954C030E060EDE2
:1001600077E0369FC001379F900D11249C01242B0E
:10017000352B4F9949C040E068EB7BE0469FC001BA
:10018000479F900D1124822B932B1D993FC040E077
:1001900060EA7FE0469F9001479F300D1124822B3B
:1001A000932B1B9935C040E068E873E1469F9001AE
:1001B000479F300D1124282B392B1C992BC040E070
:1001C00060E777E1469FC001479F900D1124282BDF
:1001D000392B189921C040E06CEA7DE0469FC001B0
:1001E000479F900D1124822B932B89352BE1920789
:1001F00034F09595879588352BE19207D4F70895CB
:1002000092E0A3CF34E0ABCF48E0B6CF40E1C0CF1F
:1002100040E2CACF40E4D4CF40E8DECF0E94A10044
:100220002CEA3DE0A901481B590BCA01089589B188
:1002300089B189B189B183B183B183B183B188E0D8
:10024000089584B5826084BD83E187BDEEE6F0E069
:10025000808182608083E89A539A52980895109220
:1002600019011092180116BC5B9A80E48A95F1F787
:100270005B9883E080936900789408951F920F92B1
:100280000FB60F9211242F933F934F935F936F9369
:100290007F938F939F93AF93BF93EF93FF9380913F
:1002A000170181111AC085B5826085BD82E08093F7
:1002B000690081E080931701FF91EF91BF91AF91A9
:1002C0009F918F917F916F915F914F913F912F916E
:1002D0000F900FBE0F901F90189585B58D7F85BD2F
:1002E0001092170180911801909119016AE370E052
:1002F0000E94810370931C0160931B010E942F01D7
:10030000DBCF1F920F920FB60F9211248F939F9302
:1003100080911801909119010A9690931901809388
:1003200018019F918F910F900FBE0F901F901895FD
:100330008FE087B9E6E8F0E080ED97E09183808375
:1003400010928900109288009183808310928B0014
:1003500010928A000895CF93409113015091140197
:1003600060911501709116014F5F5F4F6F4F7F4F86
:10037000409313015093140160931501709316017B
:10038000C9B1C295C1704D99C9C080E0C82B4E99C2
:10039000C7C080E0C82B4F99C5C080E0C82B1D990D
:1003A000C3C080E0C82B1B99C1C080E0C82B1C993A
:1003B000BFC080E0C82B1899BDC080E0C82B48356D
:1003C0005B416105710581F480911B010E949200DF
:1003D00080911C010E94920010921301109214014E
:1003E00010921501109216010E940E0190931101B6
:1003F0008093100120910E0130910F01280F391FB9
:1004000030930F0120930E012091040130910501DA
:10041000AC01421B530B9A0150930D0140930C0108
:1004200090930501809304016BE1689FA001699F8F
:10043000500D1124E4E1E29FB001E39F700D1124FF
:10044000460F571F50930B0140930A019A012C5EEF
:100450003A4F309309012093080124E135E0B901B6
:10046000641B750B709307016093060148B14560EA
:1004700048B948B1457F48B9C111BBC0893E73E056
:1004800097070CF459C080911201863008F09EC085
:1004900088B18A6088B988B18A7F88B980ED97E091
:1004A0009093870080938600309389002093880082
:1004B000909387008093860030938B0020938A006E
:1004C0004FEF51EE64E0415050406040E1F700C012
:1004D000000048B1456048B948B1457F48B990939C
:1004E0008700809386004AE852E050938900409349
:1004F0008800909387008093860030938B00209330
:100500008A008FE39CE90197F1F700C00000809119
:1005100012018F5F80931201CF91089582E036CF50
:1005200084E038CF88E03ACF80E13CCF80E23ECF14
:1005300080E440CF80E842CF88319C4F0CF046C029
:1005400080911201863008F041C088B18A6088B974
:1005500088B18A7F88B980ED97E090938700809377
:1005600086003093890020938800909387008093C1
:10057000860030938B0020938A005FEF63ED70E379
:10058000515060407040E1F700C0000048B1456044
:1005900048B948B1457F48B9909387008093860059
:1005A0003093890020938800909387008093860081
:1005B0008AE892E090938B0080938A008FEF91EE0F
:1005C00024E0815090402040E1F79FCF80ED97E0FC
:1005D0009093870080938600109289001092880083
:1005E000909387008093860010928B0010928A006F
:1005F00093CF80910801909109018D3D954034F091
:100600008CED95E09093090180930801809106019B
:10061000909107018D3D954034F08CED95E09093DD
:10062000070180930601809108019091090197FFCD
:1006300004C0109209011092080180910601909166
:10064000070197FF04C01092070110920601109253
:100650001201209108013091090180ED97E09093FB
:100660008700809386003093890020938800209132
:1006700006013091070190938700809386003093A4
:100680008B0020938A0048CF0E9463000E9498014B
:100690000E9499000E9421010E942F010E9448009F
:1006A0008091000190910101A0910201B09103019C
:1006B0000196A11DB11D8093000190930101A093AB
:1006C0000201B09303010E94AB018091000190915F
:1006D0000101A0910201B09103018035934CA10565
:1006E000B105F1F68AE00E9492008AE10E94920030
:1006F0001092000110920101109202011092030168
:10070000CFCFAA1BBB1B51E107C0AA1FBB1FA61757
:10071000B70710F0A61BB70B881F991F5A95A9F7AA
:0E07200080959095BC01CD010895F894FFCF0F
:00000001FF
