:100000000C9434000C9446000C9446000C9446006A
:100010000C9446000C9446000C9446000C94460048
:100020000C9446000C9446000C9446000C94460038
:100030000C9446000C9446000C9446000C94460028
:100040000C9446000C9446000C9446000C94460018
:100050000C9446000C9446000C9446000C94460008
:100060000C9446000C94460011241FBECFEFD8E03C
:10007000DEBFCDBF21E0A0E0B1E001C01D92AD30F8
:10008000B207E1F70E94E0010C94EA010C94000031
:1000900084B1866084B982EA809380008AE180938B
:1000A000810008955093870040938600813029F4A1
:1000B00070938B0060938A00089570938900609319
:1000C00088000895823009F4C9C028F520910B01F9
:1000D00030910C01882309F456C0813009F490C096
:1000E00020910B0130910C0180E29EE490938700F7
:1000F0008093860030938900209388002091090125
:1001000030910A01909387008093860030938B0092
:1001100020938A000895843009F491C008F4B8C08F
:100120008530F1F680910B0190910C01813D27E023
:10013000920748F0059790930C0180930B019093E0
:100140000A018093090180910701811181C088B162
:10015000856088B988B1857F88B980910601811151
:1001600005C080910501882309F4BACF10920C01D3
:1001700010920B0110920A011092090110920601CF
:1001800010920501ADCF80910801811117C08091B7
:1001900007018111A5CF203187E2380731F0265FB2
:1001A0003F4F30930C0120930B0180910B019091F4
:1001B0000C0190930A018093090192CF813009F0DC
:1001C0008FCF80910701813009F08ACF213D97E0E0
:1001D000390758F02E51310930930C0120930B014F
:1001E00030930A01209309017BCF88B1856088B9DB
:1001F00088B1857F88B9109208011092070170CFED
:1002000090910801913031F480910701813009F01B
:1002100067CFC1CF911164CF90910701911160CF49
:10022000213D97E03907B0F698B19A6098B998B136
:100230009A7F98B9809308018093070151CF10925B
:100240000C0110920B0110920A011092090148CF83
:1002500088B18A6088B988B18A7F7ECF88B186608C
:1002600088B988B1867F88B980910B0190910C0183
:10027000803D974008F034CF1092060181E08093D2
:10028000050188E99AE390930C0180930B0191CFCB
:1002900088B1896088B988B1897F88B980910B015C
:1002A00090910C01803D974008F01ACF81E0809337
:1002B00006011092050180E197E2E5CF8FE087B952
:1002C000E6E8F0E080E29EE491838083109289006A
:1002D000109288009183808310928B0010928A0084
:1002E00085E00C94620087E68093C4001092C500FC
:1002F000E2ECF0E080818660808388E18093C10039
:1003000008958091C00087FFFCCF8091C6000895BA
:100310009091C00095FFFCCF8093C60008958AB1EC
:10032000837C8AB984B1867C84B90C94730189B1C9
:1003300089B189B189B183B183B183B183B188E0D7
:1003400008958091040181508730F8F084E00E9484
:1003500062000E94970190910401911118C08823B6
:10036000C1F080930401409100015091010160911E
:100370000201709103014F3F51056105710520F0A5
:1003800080FD1CC080930401089580E0E0CF9813A5
:10039000EACF4091000150910101609102017091FA
:1003A00003014F5F5F4F6F4F7F4F409300015093AA
:1003B00001016093020170930301D5CF8150E2CF18
:1003C0000E9448000E945E010E948F0180E00E940E
:0803D0006200FCCFF894FFCF9E
:00000001FF
