:100000000C9434000C943E010C9446000C94460071
:100010000C9446000C9446000C9446000C94460048
:100020000C9446000C9446000C9446000C94460038
:100030000C9446000C9446000C9481010C944600EC
:100040000C9446000C9446000C9446000C94460018
:100050000C9446000C9446000C9446000C94460008
:100060000C9446000C94460011241FBECFEFD8E03C
:10007000DEBFCDBF21E0A0E0B1E001C01D92A931FB
:10008000B207E1F70E9440030C9463030C94000054
:10009000ECE7F0E0808184648083EAE7F0E080812F
:1000A0008F68808383B7826083BF0895EAE7F0E0BA
:1000B00080818064808383B7816083BF8091780072
:1000C00090917900089584B1866084B982EA809322
:1000D00080008AE1809381000895509387004093C7
:1000E0008600813029F470938B0060938A00089514
:1000F0007093890060938800089587E68093C40018
:100100001092C500E2ECF0E080818660808388E197
:100110008093C10008958091C00087FFFCCF80913B
:10012000C60008959091C00095FFFCCF8093C60053
:1001300008958AB18F708AB984B1867C84B90C9491
:100140007D0089B14D995CC090E028EE33E0929F2C
:10015000A001939F500D11244E9954C030E060EDE2
:1001600077E0369FC001379F900D11249C01242B0E
:10017000352B4F9949C040E068EB7BE0469FC001BA
:10018000479F900D1124822B932B1D993FC040E077
:1001900060EA7FE0469F9001479F300D1124822B3B
:1001A000932B1B9935C040E068E873E1469F9001AE
:1001B000479F300D1124282B392B1C992BC040E070
:1001C00060E777E1469FC001479F900D1124282BDF
:1001D000392B189921C040E06CEA7DE0469FC001B0
:1001E000479F900D1124822B932B89352BE1920789
:1001F00034F09595879588352BE19207D4F70895CB
:1002000092E0A3CF34E0ABCF48E0B6CF40E1C0CF1F
:1002100040E2CACF40E4D4CF40E8DECF0E94A10044
:100220002CEA3DE0A901481B590BCA01089589B188
:1002300089B189B189B183B183B183B183B188E0D8
:10024000089584B5826084BD83E187BDEEE6F0E069
:10025000808182608083E89A539A52980895109220
:1002600015011092140116BC5B9A80E48A95F1F78F
:100270005B9883E080936900789408951F920F92B1
:100280000FB60F9211242F933F934F935F936F9369
:100290007F938F939F93AF93BF93EF93FF9380913F
:1002A000130181111AC085B5826085BD82E08093FB
:1002B000690081E080931301FF91EF91BF91AF91AD
:1002C0009F918F917F916F915F914F913F912F916E
:1002D0000F900FBE0F901F90189585B58D7F85BD2F
:1002E0001092130180911401909115016AE370E05E
:1002F0000E944F0370931801609317010E942F0111
:10030000DBCF1F920F920FB60F9211248F939F9302
:1003100080911401909115010A9690931501809394
:1003200014019F918F910F900FBE0F901F90189501
:100330008FE087B9E6E8F0E080ED97E09183808375
:1003400010928900109288009183808310928B0014
:1003500010928A000895CF9340910F01509110019F
:1003600060911101709112014F5F5F4F6F4F7F4F8E
:1003700040930F015093100160931101709312018B
:10038000C9B1C295C1704D99C5C080E0C82B4E99C6
:10039000C3C080E0C82B4F99C1C080E0C82B1D9915
:1003A000BFC080E0C82B1B99BDC080E0C82B1C9942
:1003B000BBC080E0C82B1899B9C080E0C82B483575
:1003C0005B416105710561F40E9456000E94920034
:1003D00010920F011092100110921101109212014F
:1003E0000E940E0190930D0180930C0120910A014F
:1003F00030910B01280F391F30930B0120930A0114
:100400002091000130910101AC01421B530B9A0174
:1004100050930901409308019093010180930001DA
:100420006BE1689FA001699F500D1124E4E1E29FF8
:10043000B001E39F700D1124460F571F5093070121
:10044000409306019A012C5E3A4F309305012093A8
:10045000040124E135E0B901641B750B70930301BD
:100460006093020148B1456048B948B1457F48B939
:10047000C111BBC0893E73E097070CF459C080914D
:100480000E01863008F09EC088B18A6088B988B1B4
:100490008A7F88B980ED97E09093870080938600EB
:1004A0003093890020938800909387008093860082
:1004B00030938B0020938A004FEF51EE64E041505F
:1004C00050406040E1F700C0000048B1456048B9C5
:1004D00048B1457F48B990938700809386004AE8E9
:1004E00052E0509389004093880090938700809356
:1004F000860030938B0020938A008FE39CE901975C
:10050000F1F700C0000080910E018F5F80930E0113
:10051000CF91089582E03ACF84E03CCF88E03ECF8F
:1005200080E140CF80E242CF80E444CF80E846CFF4
:1005300088319C4F0CF046C080910E01863008F047
:1005400041C088B18A6088B988B18A7F88B980ED56
:1005500097E09093870080938600309389002093E2
:100560008800909387008093860030938B002093BF
:100570008A005FEF63ED70E3515060407040E1F737
:1005800000C0000048B1456048B948B1457F48B94E
:100590009093870080938600309389002093880091
:1005A00090938700809386008AE892E090938B0076
:1005B00080938A008FEF91EE24E08150904020409C
:1005C000E1F79FCF80ED97E09093870080938600BE
:1005D0001092890010928800909387008093860083
:1005E00010928B0010928A0093CF80910401909119
:1005F00005018D3D954034F08CED95E0909305011B
:100600008093040180910201909103018D3D9540FA
:1006100034F08CED95E0909303018093020180917A
:1006200004019091050197FF04C0109205011092FA
:100630000401809102019091030197FF04C0109280
:1006400003011092020110920E01209104013091D9
:10065000050180ED97E090938700809386003093AA
:10066000890020938800209102013091030190932A
:1006700087008093860030938B0020938A0048CFB8
:100680000E9463000E9498010E9499000E9421012B
:100690000E942F010E9448000E94AB01FDCFAA1BBF
:1006A000BB1B51E107C0AA1FBB1FA617B70710F05D
:1006B000A61BB70B881F991F5A95A9F7809590958F
:0A06C000BC01CD010895F894FFCFAE
:00000001FF
